{
  "contractName": "MyToken",
  "abi": [
    {
      "inputs": [],
      "payable": false,
      "stateMutability": "nonpayable",
      "type": "constructor"
    },
    {
      "anonymous": false,
      "inputs": [
        {
          "indexed": true,
          "internalType": "address",
          "name": "from",
          "type": "address"
        },
        {
          "indexed": true,
          "internalType": "address",
          "name": "to",
          "type": "address"
        },
        {
          "indexed": false,
          "internalType": "uint256",
          "name": "value",
          "type": "uint256"
        }
      ],
      "name": "Transfer",
      "type": "event"
    },
    {
      "constant": true,
      "inputs": [],
      "name": "totalSupply",
      "outputs": [
        {
          "internalType": "uint256",
          "name": "",
          "type": "uint256"
        }
      ],
      "payable": false,
      "stateMutability": "view",
      "type": "function"
    },
    {
      "constant": true,
      "inputs": [
        {
          "internalType": "address",
          "name": "_account",
          "type": "address"
        }
      ],
      "name": "balanceOf",
      "outputs": [
        {
          "internalType": "uint256",
          "name": "",
          "type": "uint256"
        }
      ],
      "payable": false,
      "stateMutability": "view",
      "type": "function"
    },
    {
      "constant": false,
      "inputs": [
        {
          "internalType": "address",
          "name": "_recipient",
          "type": "address"
        },
        {
          "internalType": "uint256",
          "name": "_amount",
          "type": "uint256"
        }
      ],
      "name": "transfer",
      "outputs": [
        {
          "internalType": "bool",
          "name": "",
          "type": "bool"
        }
      ],
      "payable": false,
      "stateMutability": "nonpayable",
      "type": "function"
    },
    {
      "constant": false,
      "inputs": [
        {
          "internalType": "uint256",
          "name": "_amount",
          "type": "uint256"
        }
      ],
      "name": "mint",
      "outputs": [
        {
          "internalType": "uint256",
          "name": "",
          "type": "uint256"
        }
      ],
      "payable": false,
      "stateMutability": "nonpayable",
      "type": "function"
    },
    {
      "constant": false,
      "inputs": [
        {
          "internalType": "uint256",
          "name": "_amount",
          "type": "uint256"
        }
      ],
      "name": "burn",
      "outputs": [
        {
          "internalType": "uint256",
          "name": "",
          "type": "uint256"
        }
      ],
      "payable": false,
      "stateMutability": "nonpayable",
      "type": "function"
    }
  ],
  "bytecode": "0x608060405234801561001057600080fd5b50620f42406001819055506040518060400160405280600d81526020017f426861776e6120546977617269000000000000000000000000000000000000008152506002908051906020019061006692919061015a565b506040518060400160405280600381526020017f4248540000000000000000000000000000000000000000000000000000000000815250600390805190602001906100b292919061015a565b506000600460006101000a81548160ff021916908360ff1602179055506001546000803373ffffffffffffffffffffffffffffffffffffffff1673ffffffffffffffffffffffffffffffffffffffff1681526020019081526020016000208190555033600460016101000a81548173ffffffffffffffffffffffffffffffffffffffff021916908373ffffffffffffffffffffffffffffffffffffffff1602179055506101ff565b828054600181600116156101000203166002900490600052602060002090601f016020900481019282601f1061019b57805160ff19168380011785556101c9565b828001600101855582156101c9579182015b828111156101c85782518255916020019190600101906101ad565b5b5090506101d691906101da565b5090565b6101fc91905b808211156101f85760008160009055506001016101e0565b5090565b90565b61064c8061020e6000396000f3fe608060405234801561001057600080fd5b50600436106100575760003560e01c806318160ddd1461005c57806342966c681461007a57806370a08231146100bc578063a0712d6814610114578063a9059cbb14610156575b600080fd5b6100646101bc565b6040518082815260200191505060405180910390f35b6100a66004803603602081101561009057600080fd5b81019080803590602001909291905050506101c6565b6040518082815260200191505060405180910390f35b6100fe600480360360208110156100d257600080fd5b81019080803573ffffffffffffffffffffffffffffffffffffffff1690602001909291905050506102ec565b6040518082815260200191505060405180910390f35b6101406004803603602081101561012a57600080fd5b8101908080359060200190929190505050610334565b6040518082815260200191505060405180910390f35b6101a26004803603604081101561016c57600080fd5b81019080803573ffffffffffffffffffffffffffffffffffffffff1690602001909291908035906020019092919050505061045a565b604051808215151515815260200191505060405180910390f35b6000600154905090565b6000600460019054906101000a900473ffffffffffffffffffffffffffffffffffffffff1673ffffffffffffffffffffffffffffffffffffffff163373ffffffffffffffffffffffffffffffffffffffff161461028b576040517f08c379a00000000000000000000000000000000000000000000000000000000081526004018080602001828103825260208152602001807f596f7520617265206e6f74204465706c6f796572206f6620436f6e747261637481525060200191505060405180910390fd5b81600160008282540392505081905550816000803373ffffffffffffffffffffffffffffffffffffffff1673ffffffffffffffffffffffffffffffffffffffff16815260200190815260200160002060008282540392505081905550919050565b60008060008373ffffffffffffffffffffffffffffffffffffffff1673ffffffffffffffffffffffffffffffffffffffff168152602001908152602001600020549050919050565b6000600460019054906101000a900473ffffffffffffffffffffffffffffffffffffffff1673ffffffffffffffffffffffffffffffffffffffff163373ffffffffffffffffffffffffffffffffffffffff16146103f9576040517f08c379a00000000000000000000000000000000000000000000000000000000081526004018080602001828103825260208152602001807f596f7520617265206e6f74204465706c6f796572206f6620436f6e747261637481525060200191505060405180910390fd5b81600160008282540192505081905550816000803373ffffffffffffffffffffffffffffffffffffffff1673ffffffffffffffffffffffffffffffffffffffff16815260200190815260200160002060008282540192505081905550919050565b6000816000803373ffffffffffffffffffffffffffffffffffffffff1673ffffffffffffffffffffffffffffffffffffffff168152602001908152602001600020541015610510576040517f08c379a00000000000000000000000000000000000000000000000000000000081526004018080602001828103825260148152602001807f496e73756666696369656e742062616c616e636500000000000000000000000081525060200191505060405180910390fd5b816000803373ffffffffffffffffffffffffffffffffffffffff1673ffffffffffffffffffffffffffffffffffffffff16815260200190815260200160002060008282540392505081905550816000808573ffffffffffffffffffffffffffffffffffffffff1673ffffffffffffffffffffffffffffffffffffffff168152602001908152602001600020600082825401925050819055508273ffffffffffffffffffffffffffffffffffffffff163373ffffffffffffffffffffffffffffffffffffffff167fddf252ad1be2c89b69c2b068fc378daa952ba7f163c4a11628f55a4df523b3ef846040518082815260200191505060405180910390a3600190509291505056fea265627a7a72315820ed80644f882d823e577b303e08fbd2d8a134f418ab7fc5e8933ae7eab5d4a2cc64736f6c63430005100032",
  "source": "pragma solidity ^0.5.0;\r\n\r\ncontract MyToken  {\r\n    \r\n    mapping (address => uint256) private balances;\r\n\r\n    uint256 private _totalSupply;\r\n    string private _name;\r\n    string private _symbol;\r\n    uint8 private _decimal;\r\n    address deployer;\r\n    \r\n    constructor () public {\r\n        _totalSupply = 1000000;\r\n        _name = \"Bhawna Tiwari\";\r\n        _symbol = \"BHT\";\r\n        _decimal = 0;\r\n        balances[msg.sender] = _totalSupply;\r\n        deployer = msg.sender;\r\n    }\r\n\r\n    function totalSupply() public view returns (uint256){\r\n        return _totalSupply;\r\n    }\r\n    function balanceOf(address _account) public view returns (uint256){\r\n        return balances[_account];\r\n    }\r\n    function transfer(address _recipient, uint256 _amount) public returns (bool){\r\n       require(balances[msg.sender] >= _amount, \"Insufficient balance\"); \r\n        balances[msg.sender] -= _amount;\r\n        balances[_recipient] += _amount;\r\n        emit Transfer(msg.sender, _recipient, _amount);\r\n        return true;\r\n    }\r\n   \r\n    event Transfer(address indexed from, address indexed to, uint256 value);\r\n    \r\n    modifier onlyDeployer {\r\n        require(msg.sender == deployer, \"You are not Deployer of Contract\");\r\n        _;\r\n    }\r\n    \r\n    function mint(uint256 _amount)public onlyDeployer returns (uint256){\r\n        _totalSupply += _amount;\r\n        balances[msg.sender] += _amount;\r\n    }\r\n    \r\n    function burn(uint256 _amount)public onlyDeployer returns (uint256){\r\n        _totalSupply -= _amount;\r\n        balances[msg.sender] -= _amount;\r\n    }\r\n       \r\n}\r\n",
  "sourcePath": "/home/bhawana/newToken/contracts/MyToken.sol",
  "compiler": {
    "name": "solc",
    "version": "0.5.16+commit.9c3226ce.Emscripten.clang"
  },
  "schemaVersion": "3.3.0",
  "updatedAt": "2020-10-15T05:51:11.462Z",
  "networkType": "ethereum",
  "devdoc": {
    "methods": {}
  },
  "userdoc": {
    "methods": {}
  }
}